{
  "contractName": "traffic",
  "abi": [
    {
      "inputs": [],
      "payable": false,
      "stateMutability": "nonpayable",
      "type": "constructor"
    },
    {
      "anonymous": false,
      "inputs": [
        {
          "indexed": true,
          "internalType": "uint256",
          "name": "offense_id",
          "type": "uint256"
        }
      ],
      "name": "offenseadded",
      "type": "event"
    },
    {
      "anonymous": false,
      "inputs": [
        {
          "indexed": true,
          "internalType": "uint256",
          "name": "p_id",
          "type": "uint256"
        }
      ],
      "name": "policeadded",
      "type": "event"
    },
    {
      "anonymous": false,
      "inputs": [
        {
          "indexed": true,
          "internalType": "uint256",
          "name": "license",
          "type": "uint256"
        }
      ],
      "name": "useradded",
      "type": "event"
    },
    {
      "constant": true,
      "inputs": [],
      "name": "ACPcount",
      "outputs": [
        {
          "internalType": "uint256",
          "name": "",
          "type": "uint256"
        }
      ],
      "payable": false,
      "stateMutability": "view",
      "type": "function"
    },
    {
      "constant": true,
      "inputs": [],
      "name": "ASIcount",
      "outputs": [
        {
          "internalType": "uint256",
          "name": "",
          "type": "uint256"
        }
      ],
      "payable": false,
      "stateMutability": "view",
      "type": "function"
    },
    {
      "constant": true,
      "inputs": [
        {
          "internalType": "uint256",
          "name": "",
          "type": "uint256"
        }
      ],
      "name": "Acp_area",
      "outputs": [
        {
          "internalType": "address payable",
          "name": "",
          "type": "address"
        }
      ],
      "payable": false,
      "stateMutability": "view",
      "type": "function"
    },
    {
      "constant": true,
      "inputs": [
        {
          "internalType": "uint256",
          "name": "",
          "type": "uint256"
        }
      ],
      "name": "Acp_exist",
      "outputs": [
        {
          "internalType": "bool",
          "name": "",
          "type": "bool"
        }
      ],
      "payable": false,
      "stateMutability": "view",
      "type": "function"
    },
    {
      "constant": true,
      "inputs": [
        {
          "internalType": "uint256",
          "name": "",
          "type": "uint256"
        }
      ],
      "name": "Area_exist",
      "outputs": [
        {
          "internalType": "bool",
          "name": "",
          "type": "bool"
        }
      ],
      "payable": false,
      "stateMutability": "view",
      "type": "function"
    },
    {
      "constant": true,
      "inputs": [],
      "name": "DCP",
      "outputs": [
        {
          "internalType": "address",
          "name": "",
          "type": "address"
        }
      ],
      "payable": false,
      "stateMutability": "view",
      "type": "function"
    },
    {
      "constant": true,
      "inputs": [],
      "name": "HCcount",
      "outputs": [
        {
          "internalType": "uint256",
          "name": "",
          "type": "uint256"
        }
      ],
      "payable": false,
      "stateMutability": "view",
      "type": "function"
    },
    {
      "constant": true,
      "inputs": [],
      "name": "PSIcount",
      "outputs": [
        {
          "internalType": "uint256",
          "name": "",
          "type": "uint256"
        }
      ],
      "payable": false,
      "stateMutability": "view",
      "type": "function"
    },
    {
      "constant": true,
      "inputs": [
        {
          "internalType": "address",
          "name": "",
          "type": "address"
        }
      ],
      "name": "accountlicense",
      "outputs": [
        {
          "internalType": "uint256",
          "name": "",
          "type": "uint256"
        }
      ],
      "payable": false,
      "stateMutability": "view",
      "type": "function"
    },
    {
      "constant": true,
      "inputs": [
        {
          "internalType": "uint256",
          "name": "",
          "type": "uint256"
        }
      ],
      "name": "fineDB",
      "outputs": [
        {
          "internalType": "uint256",
          "name": "offense_id",
          "type": "uint256"
        },
        {
          "internalType": "uint256",
          "name": "amount",
          "type": "uint256"
        },
        {
          "internalType": "uint256",
          "name": "p_id",
          "type": "uint256"
        },
        {
          "internalType": "uint256",
          "name": "license",
          "type": "uint256"
        },
        {
          "internalType": "bool",
          "name": "paid",
          "type": "bool"
        }
      ],
      "payable": false,
      "stateMutability": "view",
      "type": "function"
    },
    {
      "constant": true,
      "inputs": [
        {
          "internalType": "uint256",
          "name": "",
          "type": "uint256"
        }
      ],
      "name": "finelist",
      "outputs": [
        {
          "internalType": "uint256",
          "name": "",
          "type": "uint256"
        }
      ],
      "payable": false,
      "stateMutability": "view",
      "type": "function"
    },
    {
      "constant": true,
      "inputs": [],
      "name": "fines",
      "outputs": [
        {
          "internalType": "uint256",
          "name": "",
          "type": "uint256"
        }
      ],
      "payable": false,
      "stateMutability": "view",
      "type": "function"
    },
    {
      "constant": true,
      "inputs": [
        {
          "internalType": "uint256",
          "name": "",
          "type": "uint256"
        }
      ],
      "name": "offensedb",
      "outputs": [
        {
          "internalType": "uint256",
          "name": "offense_id",
          "type": "uint256"
        },
        {
          "internalType": "string",
          "name": "vehicle_no",
          "type": "string"
        },
        {
          "internalType": "uint256",
          "name": "area",
          "type": "uint256"
        },
        {
          "internalType": "string",
          "name": "offense_type",
          "type": "string"
        },
        {
          "internalType": "uint256",
          "name": "p_id",
          "type": "uint256"
        },
        {
          "internalType": "uint256",
          "name": "license",
          "type": "uint256"
        },
        {
          "internalType": "string",
          "name": "desc",
          "type": "string"
        },
        {
          "internalType": "bool",
          "name": "paid",
          "type": "bool"
        }
      ],
      "payable": false,
      "stateMutability": "view",
      "type": "function"
    },
    {
      "constant": true,
      "inputs": [],
      "name": "offenses",
      "outputs": [
        {
          "internalType": "uint256",
          "name": "",
          "type": "uint256"
        }
      ],
      "payable": false,
      "stateMutability": "view",
      "type": "function"
    },
    {
      "constant": true,
      "inputs": [
        {
          "internalType": "uint256",
          "name": "",
          "type": "uint256"
        }
      ],
      "name": "pol_exist",
      "outputs": [
        {
          "internalType": "bool",
          "name": "",
          "type": "bool"
        }
      ],
      "payable": false,
      "stateMutability": "view",
      "type": "function"
    },
    {
      "constant": true,
      "inputs": [
        {
          "internalType": "uint256",
          "name": "",
          "type": "uint256"
        }
      ],
      "name": "policeAddress",
      "outputs": [
        {
          "internalType": "address",
          "name": "",
          "type": "address"
        }
      ],
      "payable": false,
      "stateMutability": "view",
      "type": "function"
    },
    {
      "constant": true,
      "inputs": [
        {
          "internalType": "uint256",
          "name": "",
          "type": "uint256"
        }
      ],
      "name": "policeDB",
      "outputs": [
        {
          "internalType": "uint256",
          "name": "p_id",
          "type": "uint256"
        },
        {
          "internalType": "string",
          "name": "name",
          "type": "string"
        },
        {
          "internalType": "uint256",
          "name": "area",
          "type": "uint256"
        },
        {
          "internalType": "uint256",
          "name": "position",
          "type": "uint256"
        },
        {
          "internalType": "address",
          "name": "policeAddress",
          "type": "address"
        }
      ],
      "payable": false,
      "stateMutability": "view",
      "type": "function"
    },
    {
      "constant": true,
      "inputs": [
        {
          "internalType": "address",
          "name": "",
          "type": "address"
        }
      ],
      "name": "policeOfficer",
      "outputs": [
        {
          "internalType": "bool",
          "name": "",
          "type": "bool"
        }
      ],
      "payable": false,
      "stateMutability": "view",
      "type": "function"
    },
    {
      "constant": true,
      "inputs": [],
      "name": "policecount",
      "outputs": [
        {
          "internalType": "uint256",
          "name": "",
          "type": "uint256"
        }
      ],
      "payable": false,
      "stateMutability": "view",
      "type": "function"
    },
    {
      "constant": true,
      "inputs": [
        {
          "internalType": "uint256",
          "name": "",
          "type": "uint256"
        }
      ],
      "name": "policelist",
      "outputs": [
        {
          "internalType": "uint256",
          "name": "",
          "type": "uint256"
        }
      ],
      "payable": false,
      "stateMutability": "view",
      "type": "function"
    },
    {
      "constant": true,
      "inputs": [
        {
          "internalType": "address",
          "name": "",
          "type": "address"
        }
      ],
      "name": "position",
      "outputs": [
        {
          "internalType": "uint256",
          "name": "",
          "type": "uint256"
        }
      ],
      "payable": false,
      "stateMutability": "view",
      "type": "function"
    },
    {
      "constant": true,
      "inputs": [
        {
          "internalType": "uint256",
          "name": "",
          "type": "uint256"
        }
      ],
      "name": "userDB",
      "outputs": [
        {
          "internalType": "uint256",
          "name": "license",
          "type": "uint256"
        },
        {
          "internalType": "string",
          "name": "name",
          "type": "string"
        },
        {
          "internalType": "string",
          "name": "vehicle_no",
          "type": "string"
        },
        {
          "internalType": "uint256",
          "name": "offenseCount",
          "type": "uint256"
        },
        {
          "internalType": "uint256",
          "name": "license_status",
          "type": "uint256"
        }
      ],
      "payable": false,
      "stateMutability": "view",
      "type": "function"
    },
    {
      "constant": true,
      "inputs": [
        {
          "internalType": "address",
          "name": "",
          "type": "address"
        }
      ],
      "name": "useraccount",
      "outputs": [
        {
          "internalType": "bool",
          "name": "",
          "type": "bool"
        }
      ],
      "payable": false,
      "stateMutability": "view",
      "type": "function"
    },
    {
      "constant": true,
      "inputs": [],
      "name": "usercount",
      "outputs": [
        {
          "internalType": "uint256",
          "name": "",
          "type": "uint256"
        }
      ],
      "payable": false,
      "stateMutability": "view",
      "type": "function"
    },
    {
      "constant": false,
      "inputs": [
        {
          "internalType": "uint256",
          "name": "_area",
          "type": "uint256"
        },
        {
          "internalType": "uint256",
          "name": "_p_id",
          "type": "uint256"
        },
        {
          "internalType": "string",
          "name": "_name",
          "type": "string"
        },
        {
          "internalType": "address payable",
          "name": "_officer",
          "type": "address"
        }
      ],
      "name": "AddArea",
      "outputs": [],
      "payable": false,
      "stateMutability": "nonpayable",
      "type": "function"
    },
    {
      "constant": false,
      "inputs": [
        {
          "internalType": "uint256",
          "name": "_p_id",
          "type": "uint256"
        },
        {
          "internalType": "string",
          "name": "_name",
          "type": "string"
        },
        {
          "internalType": "uint256",
          "name": "_area",
          "type": "uint256"
        },
        {
          "internalType": "address payable",
          "name": "_officer",
          "type": "address"
        }
      ],
      "name": "AddACP",
      "outputs": [],
      "payable": false,
      "stateMutability": "nonpayable",
      "type": "function"
    },
    {
      "constant": false,
      "inputs": [
        {
          "internalType": "uint256",
          "name": "_p_id1",
          "type": "uint256"
        },
        {
          "internalType": "address payable",
          "name": "_officer1",
          "type": "address"
        },
        {
          "internalType": "uint256",
          "name": "_area",
          "type": "uint256"
        },
        {
          "internalType": "uint256",
          "name": "_p_id2",
          "type": "uint256"
        },
        {
          "internalType": "string",
          "name": "_name2",
          "type": "string"
        },
        {
          "internalType": "address payable",
          "name": "_officer2",
          "type": "address"
        }
      ],
      "name": "ReplaceACP",
      "outputs": [],
      "payable": false,
      "stateMutability": "nonpayable",
      "type": "function"
    },
    {
      "constant": false,
      "inputs": [
        {
          "internalType": "uint256",
          "name": "_p_id",
          "type": "uint256"
        },
        {
          "internalType": "string",
          "name": "_name",
          "type": "string"
        },
        {
          "internalType": "uint256",
          "name": "_area",
          "type": "uint256"
        },
        {
          "internalType": "uint256",
          "name": "_position",
          "type": "uint256"
        },
        {
          "internalType": "address payable",
          "name": "_officer",
          "type": "address"
        }
      ],
      "name": "AddPolice",
      "outputs": [],
      "payable": false,
      "stateMutability": "nonpayable",
      "type": "function"
    },
    {
      "constant": false,
      "inputs": [
        {
          "internalType": "uint256",
          "name": "_offense_id",
          "type": "uint256"
        },
        {
          "internalType": "uint256",
          "name": "_amount",
          "type": "uint256"
        },
        {
          "internalType": "uint256",
          "name": "_p_id",
          "type": "uint256"
        },
        {
          "internalType": "uint256",
          "name": "_license",
          "type": "uint256"
        }
      ],
      "name": "RecordFine",
      "outputs": [],
      "payable": false,
      "stateMutability": "nonpayable",
      "type": "function"
    },
    {
      "constant": false,
      "inputs": [
        {
          "internalType": "uint256",
          "name": "_license",
          "type": "uint256"
        },
        {
          "internalType": "string",
          "name": "_name",
          "type": "string"
        },
        {
          "internalType": "string",
          "name": "_vehicle_no",
          "type": "string"
        },
        {
          "internalType": "uint256",
          "name": "_offenseCount",
          "type": "uint256"
        },
        {
          "internalType": "uint256",
          "name": "_license_status",
          "type": "uint256"
        }
      ],
      "name": "RegisterUser",
      "outputs": [],
      "payable": false,
      "stateMutability": "nonpayable",
      "type": "function"
    },
    {
      "constant": false,
      "inputs": [
        {
          "internalType": "uint256",
          "name": "_offense_id",
          "type": "uint256"
        },
        {
          "internalType": "string",
          "name": "_vehicle_no",
          "type": "string"
        },
        {
          "internalType": "uint256",
          "name": "_area",
          "type": "uint256"
        },
        {
          "internalType": "string",
          "name": "_offense_type",
          "type": "string"
        },
        {
          "internalType": "uint256",
          "name": "_p_id",
          "type": "uint256"
        },
        {
          "internalType": "uint256",
          "name": "_license",
          "type": "uint256"
        },
        {
          "internalType": "string",
          "name": "_desc",
          "type": "string"
        }
      ],
      "name": "AddOffense",
      "outputs": [],
      "payable": false,
      "stateMutability": "nonpayable",
      "type": "function"
    },
    {
      "constant": false,
      "inputs": [
        {
          "internalType": "uint256",
          "name": "_license",
          "type": "uint256"
        },
        {
          "internalType": "address",
          "name": "_newaccount",
          "type": "address"
        }
      ],
      "name": "registeraccount",
      "outputs": [],
      "payable": false,
      "stateMutability": "nonpayable",
      "type": "function"
    },
    {
      "constant": false,
      "inputs": [
        {
          "internalType": "uint256",
          "name": "_license",
          "type": "uint256"
        },
        {
          "internalType": "uint256",
          "name": "_offense_id",
          "type": "uint256"
        },
        {
          "internalType": "uint256",
          "name": "_area",
          "type": "uint256"
        }
      ],
      "name": "payfine",
      "outputs": [],
      "payable": true,
      "stateMutability": "payable",
      "type": "function"
    },
    {
      "constant": false,
      "inputs": [
        {
          "internalType": "uint256",
          "name": "amount",
          "type": "uint256"
        }
      ],
      "name": "deposit",
      "outputs": [],
      "payable": true,
      "stateMutability": "payable",
      "type": "function"
    },
    {
      "constant": false,
      "inputs": [
        {
          "internalType": "uint256",
          "name": "_license",
          "type": "uint256"
        }
      ],
      "name": "RevokeLicense",
      "outputs": [],
      "payable": false,
      "stateMutability": "nonpayable",
      "type": "function"
    }
  ],
  "bytecode": "0x60806040526000600555600060065560006007556000600855600060095560006015556000601a553480156200003457600080fd5b50336000806101000a81548173ffffffffffffffffffffffffffffffffffffffff021916908373ffffffffffffffffffffffffffffffffffffffff1602179055506040518060a00160405280600181526020016040518060400160405280600581526020017f4d616a6f72000000000000000000000000000000000000000000000000000000815250815260200160648152602001600581526020016000809054906101000a900473ffffffffffffffffffffffffffffffffffffffff1673ffffffffffffffffffffffffffffffffffffffff168152506001600080815260200190815260200160002060008201518160000155602082015181600101908051906020019062000146929190620001d8565b50604082015181600201556060820151816003015560808201518160040160006101000a81548173ffffffffffffffffffffffffffffffffffffffff021916908373ffffffffffffffffffffffffffffffffffffffff1602179055509050506001600260006064815260200190815260200160002060006101000a81548160ff02191690831515021790555062000287565b828054600181600116156101000203166002900490600052602060002090601f016020900481019282601f106200021b57805160ff19168380011785556200024c565b828001600101855582156200024c579182015b828111156200024b5782518255916020019190600101906200022e565b5b5090506200025b91906200025f565b5090565b6200028491905b808211156200028057600081600090555060010162000266565b5090565b90565b61348480620002976000396000f3fe6080604052600436106102045760003560e01c8063686011f711610118578063b7648fb9116100a0578063dd89eebe1161006f578063dd89eebe146111f2578063e56611f3146112ee578063e8fcb9981461146b578063f4b3c34a146114d4578063fd52888d1461152757610204565b8063b7648fb914611098578063c9bd2893146110fd578063d04581f814611128578063d96587921461117757610204565b8063986049b4116100e7578063986049b414610bc757806399f5304414610de5578063a04d970214610e3c578063a7d3777314610eb7578063b6b55f251461106a57610204565b8063686011f7146108215780637dc6e4961461095657806380ea16f314610a525780638cf89ee514610b7857610204565b80632ef906d31161019b578063460efc381161016a578063460efc381461070b578063491cae7814610736578063507fd3821461076157806363c4ed5a146107b457806365fe4653146107f657610204565b80632ef906d3146104855780632f5ce44e146104de5780632f5d190414610509578063391ad10c1461060557610204565b80631d8baece116101d75780631d8baece1461030d578063209a1439146103485780632866d30e146103b15780632cebfcc01461042057610204565b8063096c0872146102095780630f322c1e14610264578063112265491461028f5780631adff4d8146102e2575b600080fd5b34801561021557600080fd5b506102626004803603604081101561022c57600080fd5b8101908080359060200190929190803573ffffffffffffffffffffffffffffffffffffffff169060200190929190505050611552565b005b34801561027057600080fd5b50610279611681565b6040518082815260200191505060405180910390f35b34801561029b57600080fd5b506102c8600480360360208110156102b257600080fd5b8101908080359060200190929190505050611687565b604051808215151515815260200191505060405180910390f35b3480156102ee57600080fd5b506102f76116a7565b6040518082815260200191505060405180910390f35b34801561031957600080fd5b506103466004803603602081101561033057600080fd5b81019080803590602001909291905050506116ad565b005b34801561035457600080fd5b506103976004803603602081101561036b57600080fd5b81019080803573ffffffffffffffffffffffffffffffffffffffff169060200190929190505050611749565b604051808215151515815260200191505060405180910390f35b3480156103bd57600080fd5b506103ea600480360360208110156103d457600080fd5b8101908080359060200190929190505050611769565b60405180868152602001858152602001848152602001838152602001821515151581526020019550505050505060405180910390f35b34801561042c57600080fd5b5061046f6004803603602081101561044357600080fd5b81019080803573ffffffffffffffffffffffffffffffffffffffff1690602001909291905050506117ac565b6040518082815260200191505060405180910390f35b34801561049157600080fd5b506104dc600480360360808110156104a857600080fd5b81019080803590602001909291908035906020019092919080359060200190929190803590602001909291905050506117c4565b005b3480156104ea57600080fd5b506104f3611909565b6040518082815260200191505060405180910390f35b34801561051557600080fd5b506106036004803603608081101561052c57600080fd5b8101908080359060200190929190803590602001909291908035906020019064010000000081111561055d57600080fd5b82018360208201111561056f57600080fd5b8035906020019184600183028401116401000000008311171561059157600080fd5b91908080601f016020809104026020016040519081016040528093929190818152602001838380828437600081840152601f19601f820116905080830192505050505050509192919290803573ffffffffffffffffffffffffffffffffffffffff16906020019092919050505061190f565b005b34801561061157600080fd5b50610709600480360360a081101561062857600080fd5b81019080803590602001909291908035906020019064010000000081111561064f57600080fd5b82018360208201111561066157600080fd5b8035906020019184600183028401116401000000008311171561068357600080fd5b91908080601f016020809104026020016040519081016040528093929190818152602001838380828437600081840152601f19601f8201169050808301925050505050505091929192908035906020019092919080359060200190929190803573ffffffffffffffffffffffffffffffffffffffff1690602001909291905050506119a6565b005b34801561071757600080fd5b50610720611cec565b6040518082815260200191505060405180910390f35b34801561074257600080fd5b5061074b611cf2565b6040518082815260200191505060405180910390f35b34801561076d57600080fd5b5061079a6004803603602081101561078457600080fd5b8101908080359060200190929190505050611cf8565b604051808215151515815260200191505060405180910390f35b6107f4600480360360608110156107ca57600080fd5b81019080803590602001909291908035906020019092919080359060200190929190505050611d18565b005b34801561080257600080fd5b5061080b611f3d565b6040518082815260200191505060405180910390f35b34801561082d57600080fd5b5061085a6004803603602081101561084457600080fd5b8101908080359060200190929190505050611f43565b604051808681526020018060200180602001858152602001848152602001838103835287818151815260200191508051906020019080838360005b838110156108b0578082015181840152602081019050610895565b50505050905090810190601f1680156108dd5780820380516001836020036101000a031916815260200191505b50838103825286818151815260200191508051906020019080838360005b838110156109165780820151818401526020810190506108fb565b50505050905090810190601f1680156109435780820380516001836020036101000a031916815260200191505b5097505050505050505060405180910390f35b34801561096257600080fd5b5061098f6004803603602081101561097957600080fd5b81019080803590602001909291905050506120a9565b60405180868152602001806020018581526020018481526020018373ffffffffffffffffffffffffffffffffffffffff1673ffffffffffffffffffffffffffffffffffffffff168152602001828103825286818151815260200191508051906020019080838360005b83811015610a135780820151818401526020810190506109f8565b50505050905090810190601f168015610a405780820380516001836020036101000a031916815260200191505b50965050505050505060405180910390f35b348015610a5e57600080fd5b50610b76600480360360c0811015610a7557600080fd5b8101908080359060200190929190803573ffffffffffffffffffffffffffffffffffffffff169060200190929190803590602001909291908035906020019092919080359060200190640100000000811115610ad057600080fd5b820183602082011115610ae257600080fd5b80359060200191846001830284011164010000000083111715610b0457600080fd5b91908080601f016020809104026020016040519081016040528093929190818152602001838380828437600081840152601f19601f820116905080830192505050505050509192919290803573ffffffffffffffffffffffffffffffffffffffff169060200190929190505050612197565b005b348015610b8457600080fd5b50610bb160048036036020811015610b9b57600080fd5b81019080803590602001909291905050506124d1565b6040518082815260200191505060405180910390f35b348015610bd357600080fd5b50610de3600480360360e0811015610bea57600080fd5b810190808035906020019092919080359060200190640100000000811115610c1157600080fd5b820183602082011115610c2357600080fd5b80359060200191846001830284011164010000000083111715610c4557600080fd5b91908080601f016020809104026020016040519081016040528093929190818152602001838380828437600081840152601f19601f8201169050808301925050505050505091929192908035906020019092919080359060200190640100000000811115610cb257600080fd5b820183602082011115610cc457600080fd5b80359060200191846001830284011164010000000083111715610ce657600080fd5b91908080601f016020809104026020016040519081016040528093929190818152602001838380828437600081840152601f19601f820116905080830192505050505050509192919290803590602001909291908035906020019092919080359060200190640100000000811115610d5d57600080fd5b820183602082011115610d6f57600080fd5b80359060200191846001830284011164010000000083111715610d9157600080fd5b91908080601f016020809104026020016040519081016040528093929190818152602001838380828437600081840152601f19601f8201169050808301925050505050505091929192905050506124e9565b005b348015610df157600080fd5b50610dfa612abc565b604051808273ffffffffffffffffffffffffffffffffffffffff1673ffffffffffffffffffffffffffffffffffffffff16815260200191505060405180910390f35b348015610e4857600080fd5b50610e7560048036036020811015610e5f57600080fd5b8101908080359060200190929190505050612ae1565b604051808273ffffffffffffffffffffffffffffffffffffffff1673ffffffffffffffffffffffffffffffffffffffff16815260200191505060405180910390f35b348015610ec357600080fd5b50610ef060048036036020811015610eda57600080fd5b8101908080359060200190929190505050612b14565b604051808981526020018060200188815260200180602001878152602001868152602001806020018515151515815260200184810384528b818151815260200191508051906020019080838360005b83811015610f5a578082015181840152602081019050610f3f565b50505050905090810190601f168015610f875780820380516001836020036101000a031916815260200191505b50848103835289818151815260200191508051906020019080838360005b83811015610fc0578082015181840152602081019050610fa5565b50505050905090810190601f168015610fed5780820380516001836020036101000a031916815260200191505b50848103825286818151815260200191508051906020019080838360005b8381101561102657808201518184015260208101905061100b565b50505050905090810190601f1680156110535780820380516001836020036101000a031916815260200191505b509b50505050505050505050505060405180910390f35b6110966004803603602081101561108057600080fd5b8101908080359060200190929190505050612d31565b005b3480156110a457600080fd5b506110e7600480360360208110156110bb57600080fd5b81019080803573ffffffffffffffffffffffffffffffffffffffff169060200190929190505050612d40565b6040518082815260200191505060405180910390f35b34801561110957600080fd5b50611112612d58565b6040518082815260200191505060405180910390f35b34801561113457600080fd5b506111616004803603602081101561114b57600080fd5b8101908080359060200190929190505050612d5e565b6040518082815260200191505060405180910390f35b34801561118357600080fd5b506111b06004803603602081101561119a57600080fd5b8101908080359060200190929190505050612d76565b604051808273ffffffffffffffffffffffffffffffffffffffff1673ffffffffffffffffffffffffffffffffffffffff16815260200191505060405180910390f35b3480156111fe57600080fd5b506112ec6004803603608081101561121557600080fd5b81019080803590602001909291908035906020019064010000000081111561123c57600080fd5b82018360208201111561124e57600080fd5b8035906020019184600183028401116401000000008311171561127057600080fd5b91908080601f016020809104026020016040519081016040528093929190818152602001838380828437600081840152601f19601f82011690508083019250505050505050919291929080359060200190929190803573ffffffffffffffffffffffffffffffffffffffff169060200190929190505050612da9565b005b3480156112fa57600080fd5b50611469600480360360a081101561131157600080fd5b81019080803590602001909291908035906020019064010000000081111561133857600080fd5b82018360208201111561134a57600080fd5b8035906020019184600183028401116401000000008311171561136c57600080fd5b91908080601f016020809104026020016040519081016040528093929190818152602001838380828437600081840152601f19601f820116905080830192505050505050509192919290803590602001906401000000008111156113cf57600080fd5b8201836020820111156113e157600080fd5b8035906020019184600183028401116401000000008311171561140357600080fd5b91908080601f016020809104026020016040519081016040528093929190818152602001838380828437600081840152601f19601f82011690508083019250505050505050919291929080359060200190929190803590602001909291905050506130f4565b005b34801561147757600080fd5b506114ba6004803603602081101561148e57600080fd5b81019080803573ffffffffffffffffffffffffffffffffffffffff1690602001909291905050506132e4565b604051808215151515815260200191505060405180910390f35b3480156114e057600080fd5b5061150d600480360360208110156114f757600080fd5b8101908080359060200190929190505050613304565b604051808215151515815260200191505060405180910390f35b34801561153357600080fd5b5061153c613324565b6040518082815260200191505060405180910390f35b600115156018600084815260200190815260200160002060009054906101000a900460ff1615151461158357600080fd5b60011515601460008373ffffffffffffffffffffffffffffffffffffffff1673ffffffffffffffffffffffffffffffffffffffff16815260200190815260200160002060009054906101000a900460ff16151514156115e157600080fd5b81601360008373ffffffffffffffffffffffffffffffffffffffff1673ffffffffffffffffffffffffffffffffffffffff168152602001908152602001600020819055506001601460008373ffffffffffffffffffffffffffffffffffffffff1673ffffffffffffffffffffffffffffffffffffffff16815260200190815260200160002060006101000a81548160ff0219169083151502179055505050565b60155481565b600b6020528060005260406000206000915054906101000a900460ff1681565b60055481565b60006017600083815260200190815260200160002054905060016016600083815260200190815260200160002060030154116116e857600080fd5b6002601660008381526020019081526020016000206003015414156117285760026016600083815260200190815260200160002060040181905550611745565b600360166000838152602001908152602001600020600401819055505b5050565b60146020528060005260406000206000915054906101000a900460ff1681565b600f6020528060005260406000206000915090508060000154908060010154908060020154908060030154908060040160009054906101000a900460ff16905085565b60136020528060005260406000206000915090505481565b60011515600360003373ffffffffffffffffffffffffffffffffffffffff1673ffffffffffffffffffffffffffffffffffffffff16815260200190815260200160002060009054906101000a900460ff1615151461182157600080fd5b6012600081548092919060010191905055506040518060a0016040528085815260200184815260200183815260200182815260200160001515815250600f600060125481526020019081526020016000206000820151816000015560208201518160010155604082015181600201556060820151816003015560808201518160040160006101000a81548160ff02191690831515021790555090505060016011600083815260200190815260200160002060006101000a81548160ff021916908315150217905550601254601060008681526020019081526020016000208190555050505050565b60075481565b6000809054906101000a900473ffffffffffffffffffffffffffffffffffffffff1673ffffffffffffffffffffffffffffffffffffffff163373ffffffffffffffffffffffffffffffffffffffff161461196857600080fd5b60016002600086815260200190815260200160002060006101000a81548160ff0219169083151502179055506119a083838684612da9565b50505050565b60011515600360003373ffffffffffffffffffffffffffffffffffffffff1673ffffffffffffffffffffffffffffffffffffffff16815260200190815260200160002060009054906101000a900460ff16151514611a0357600080fd5b6004600e60003373ffffffffffffffffffffffffffffffffffffffff1673ffffffffffffffffffffffffffffffffffffffff1681526020019081526020016000205414611a4f57600080fd5b60001515600b600087815260200190815260200160002060009054906101000a900460ff16151514611a8057600080fd5b600082118015611a905750600482105b611a9957600080fd5b6001600b600087815260200190815260200160002060006101000a81548160ff0219169083151502179055506001600360008373ffffffffffffffffffffffffffffffffffffffff1673ffffffffffffffffffffffffffffffffffffffff16815260200190815260200160002060006101000a81548160ff02191690831515021790555081600e60008373ffffffffffffffffffffffffffffffffffffffff1673ffffffffffffffffffffffffffffffffffffffff168152602001908152602001600020819055506001821415611b8157600560008154809291906001019190505550611bb5565b6002821415611ba157600760008154809291906001019190505550611bb4565b6006600081548092919060010191905055505b5b6009600081548092919060010191905055506040518060a001604052808681526020018581526020018481526020018381526020018273ffffffffffffffffffffffffffffffffffffffff16815250600160006009548152602001908152602001600020600082015181600001556020820151816001019080519060200190611c3f92919061332a565b50604082015181600201556060820151816003015560808201518160040160006101000a81548173ffffffffffffffffffffffffffffffffffffffff021916908373ffffffffffffffffffffffffffffffffffffffff160217905550905050600954600a600087815260200190815260200160002081905550847f202341b3ae4449f5d546154875cbd62dbf76790075c89d55c10793491b3eae0e60405160405180910390a25050505050565b60095481565b60065481565b60026020528060005260406000206000915054906101000a900460ff1681565b600115156011600085815260200190815260200160002060009054906101000a900460ff16151514611d4957600080fd5b600115156018600085815260200190815260200160002060009054906101000a900460ff16151514611d7a57600080fd5b60011515601460003373ffffffffffffffffffffffffffffffffffffffff1673ffffffffffffffffffffffffffffffffffffffff16815260200190815260200160002060009054906101000a900460ff16151514611ddd57611ddc8333611552565b5b82601360003373ffffffffffffffffffffffffffffffffffffffff1673ffffffffffffffffffffffffffffffffffffffff1681526020019081526020016000205414611e2857600080fd5b6000600d600083815260200190815260200160002060009054906101000a900473ffffffffffffffffffffffffffffffffffffffff1690506000600f6000858152602001908152602001600020600101549050670de0b6b3a764000081029050611e9181612d31565b8173ffffffffffffffffffffffffffffffffffffffff166108fc479081150290604051600060405180830381858888f19350505050158015611ed7573d6000803e3d6000fd5b506001600f600086815260200190815260200160002060040160006101000a81548160ff0219169083151502179055506001601b600086815260200190815260200160002060070160006101000a81548160ff0219169083151502179055505050505050565b60085481565b6016602052806000526040600020600091509050806000015490806001018054600181600116156101000203166002900480601f016020809104026020016040519081016040528092919081815260200182805460018160011615610100020316600290048015611ff55780601f10611fca57610100808354040283529160200191611ff5565b820191906000526020600020905b815481529060010190602001808311611fd857829003601f168201915b505050505090806002018054600181600116156101000203166002900480601f0160208091040260200160405190810160405280929190818152602001828054600181600116156101000203166002900480156120935780601f1061206857610100808354040283529160200191612093565b820191906000526020600020905b81548152906001019060200180831161207657829003601f168201915b5050505050908060030154908060040154905085565b6001602052806000526040600020600091509050806000015490806001018054600181600116156101000203166002900480601f01602080910402602001604051908101604052809291908181526020018280546001816001161561010002031660029004801561215b5780601f106121305761010080835404028352916020019161215b565b820191906000526020600020905b81548152906001019060200180831161213e57829003601f168201915b5050505050908060020154908060030154908060040160009054906101000a900473ffffffffffffffffffffffffffffffffffffffff16905085565b6000809054906101000a900473ffffffffffffffffffffffffffffffffffffffff1673ffffffffffffffffffffffffffffffffffffffff163373ffffffffffffffffffffffffffffffffffffffff16146121f057600080fd5b60011515600b600088815260200190815260200160002060009054906101000a900460ff1615151461222157600080fd5b60011515600c600086815260200190815260200160002060009054906101000a900460ff1615151461225257600080fd5b6000600a6000888152602001908152602001600020549050836001600083815260200190815260200160002060000181905550826001600083815260200190815260200160002060010190805190602001906122af9291906133aa565b50816001600083815260200190815260200160002060040160006101000a81548173ffffffffffffffffffffffffffffffffffffffff021916908373ffffffffffffffffffffffffffffffffffffffff1602179055506000600b600089815260200190815260200160002060006101000a81548160ff0219169083151502179055506001600360008473ffffffffffffffffffffffffffffffffffffffff1673ffffffffffffffffffffffffffffffffffffffff16815260200190815260200160002060006101000a81548160ff0219169083151502179055506000600360008873ffffffffffffffffffffffffffffffffffffffff1673ffffffffffffffffffffffffffffffffffffffff16815260200190815260200160002060006101000a81548160ff0219169083151502179055506001600b600086815260200190815260200160002060006101000a81548160ff02191690831515021790555080600a6000868152602001908152602001600020819055506000600a6000898152602001908152602001600020819055506000600e60008873ffffffffffffffffffffffffffffffffffffffff1673ffffffffffffffffffffffffffffffffffffffff168152602001908152602001600020819055506004600e60008473ffffffffffffffffffffffffffffffffffffffff1673ffffffffffffffffffffffffffffffffffffffff1681526020019081526020016000208190555050505050505050565b600a6020528060005260406000206000915090505481565b60011515600360003373ffffffffffffffffffffffffffffffffffffffff1673ffffffffffffffffffffffffffffffffffffffff16815260200190815260200160002060009054906101000a900460ff1615151461254657600080fd5b6000600a60008581526020019081526020016000205490508560016000838152602001908152602001600020600201541461258057600080fd5b60001515601960008a815260200190815260200160002060009054906101000a900460ff161515146125b157600080fd5b6040518060400160405280600181526020017f4100000000000000000000000000000000000000000000000000000000000000815250805190602001208580519060200120148061264457506040518060400160405280600181526020017f4200000000000000000000000000000000000000000000000000000000000000815250805190602001208580519060200120145b8061269157506040518060400160405280600181526020017f4300000000000000000000000000000000000000000000000000000000000000815250805190602001208580519060200120145b61269a57600080fd5b600015156018600085815260200190815260200160002060009054906101000a900460ff16151514156127f25760016018600085815260200190815260200160002060006101000a81548160ff0219169083151502179055506015600081548092919060010191905055506040518060a001604052808481526020016040518060400160405280600281526020017f4e41000000000000000000000000000000000000000000000000000000000000815250815260200188815260200160018152602001600181525060166000601554815260200190815260200160002060008201518160000155602082015181600101908051906020019061279e92919061332a565b5060408201518160020190805190602001906127bb92919061332a565b506060820151816003015560808201518160040155905050601554601760008581526020019081526020016000208190555061287c565b600060176000858152602001908152602001600020549050601660008281526020019081526020016000206003016000815480929190600101919050555060026016600083815260200190815260200160002060030154148061286b575060036016600083815260200190815260200160002060030154145b1561287a57612879846116ad565b5b505b601a6000815480929190600101919050555060405180610100016040528089815260200188815260200187815260200186815260200185815260200184815260200183815260200160001515815250601b6000601a54815260200190815260200160002060008201518160000155602082015181600101908051906020019061290692919061332a565b5060408201518160020155606082015181600301908051906020019061292d92919061332a565b506080820151816004015560a0820151816005015560c082015181600601908051906020019061295e92919061332a565b5060e08201518160070160006101000a81548160ff021916908315150217905550905050601a54601c60008a81526020019081526020016000208190555060006040518060400160405280600181526020017f410000000000000000000000000000000000000000000000000000000000000081525080519060200120868051906020012014156129f25760019050612a4c565b6040518060400160405280600181526020017f42000000000000000000000000000000000000000000000000000000000000008152508051906020012086805190602001201415612a465760029050612a4b565b600390505b5b612a58898287876117c4565b6001601960008b815260200190815260200160002060006101000a81548160ff021916908315150217905550887f55703cf9754de2fb32bed286ec61e828f4d98de97be53adce5c4c05ae6021c0660405160405180910390a2505050505050505050565b6000809054906101000a900473ffffffffffffffffffffffffffffffffffffffff1681565b600d6020528060005260406000206000915054906101000a900473ffffffffffffffffffffffffffffffffffffffff1681565b601b602052806000526040600020600091509050806000015490806001018054600181600116156101000203166002900480601f016020809104026020016040519081016040528092919081815260200182805460018160011615610100020316600290048015612bc65780601f10612b9b57610100808354040283529160200191612bc6565b820191906000526020600020905b815481529060010190602001808311612ba957829003601f168201915b505050505090806002015490806003018054600181600116156101000203166002900480601f016020809104026020016040519081016040528092919081815260200182805460018160011615610100020316600290048015612c6a5780601f10612c3f57610100808354040283529160200191612c6a565b820191906000526020600020905b815481529060010190602001808311612c4d57829003601f168201915b505050505090806004015490806005015490806006018054600181600116156101000203166002900480601f016020809104026020016040519081016040528092919081815260200182805460018160011615610100020316600290048015612d145780601f10612ce957610100808354040283529160200191612d14565b820191906000526020600020905b815481529060010190602001808311612cf757829003601f168201915b5050505050908060070160009054906101000a900460ff16905088565b803414612d3d57600080fd5b50565b600e6020528060005260406000206000915090505481565b60125481565b60106020528060005260406000206000915090505481565b60046020528060005260406000206000915054906101000a900473ffffffffffffffffffffffffffffffffffffffff1681565b6000809054906101000a900473ffffffffffffffffffffffffffffffffffffffff1673ffffffffffffffffffffffffffffffffffffffff163373ffffffffffffffffffffffffffffffffffffffff1614612e0257600080fd5b60001515600b600086815260200190815260200160002060009054906101000a900460ff16151514612e3357600080fd5b60001515600c600084815260200190815260200160002060009054906101000a900460ff16151514612e6457600080fd5b6008600081548092919060010191905055506004600e60008373ffffffffffffffffffffffffffffffffffffffff1673ffffffffffffffffffffffffffffffffffffffff168152602001908152602001600020819055506001600360008373ffffffffffffffffffffffffffffffffffffffff1673ffffffffffffffffffffffffffffffffffffffff16815260200190815260200160002060006101000a81548160ff0219169083151502179055506001600b600086815260200190815260200160002060006101000a81548160ff0219169083151502179055506009600081548092919060010191905055506040518060a00160405280858152602001848152602001838152602001600481526020018273ffffffffffffffffffffffffffffffffffffffff16815250600160006009548152602001908152602001600020600082015181600001556020820151816001019080519060200190612fca92919061332a565b50604082015181600201556060820151816003015560808201518160040160006101000a81548173ffffffffffffffffffffffffffffffffffffffff021916908373ffffffffffffffffffffffffffffffffffffffff1602179055509050506001600c600084815260200190815260200160002060006101000a81548160ff02191690831515021790555080600d600084815260200190815260200160002060006101000a81548173ffffffffffffffffffffffffffffffffffffffff021916908373ffffffffffffffffffffffffffffffffffffffff160217905550600954600a600086815260200190815260200160002081905550837f202341b3ae4449f5d546154875cbd62dbf76790075c89d55c10793491b3eae0e60405160405180910390a250505050565b600015156018600087815260200190815260200160002060009054906101000a900460ff1615151461312557600080fd5b6015600081548092919060010191905055506040518060a001604052808681526020018581526020018481526020018381526020018281525060166000601554815260200190815260200160002060008201518160000155602082015181600101908051906020019061319992919061332a565b5060408201518160020190805190602001906131b692919061332a565b506060820151816003015560808201518160040155905050601554601760008781526020019081526020016000208190555060016018600087815260200190815260200160002060006101000a81548160ff02191690831515021790555084601360003373ffffffffffffffffffffffffffffffffffffffff1673ffffffffffffffffffffffffffffffffffffffff168152602001908152602001600020819055506001601460003373ffffffffffffffffffffffffffffffffffffffff1673ffffffffffffffffffffffffffffffffffffffff16815260200190815260200160002060006101000a81548160ff021916908315150217905550847f602aa25a799752e803ab016608dd5d88cb52102de84c3039a4fcbe7b0e8d902c60405160405180910390a25050505050565b60036020528060005260406000206000915054906101000a900460ff1681565b600c6020528060005260406000206000915054906101000a900460ff1681565b601a5481565b828054600181600116156101000203166002900490600052602060002090601f016020900481019282601f1061336b57805160ff1916838001178555613399565b82800160010185558215613399579182015b8281111561339857825182559160200191906001019061337d565b5b5090506133a6919061342a565b5090565b828054600181600116156101000203166002900490600052602060002090601f016020900481019282601f106133eb57805160ff1916838001178555613419565b82800160010185558215613419579182015b828111156134185782518255916020019190600101906133fd565b5b509050613426919061342a565b5090565b61344c91905b80821115613448576000816000905550600101613430565b5090565b9056fea265627a7a72315820faf1774dde6bda608ed5ab0eb862cf4900583bb46f593b05dd61ec2e4d0a5ecd64736f6c63430005100032",
  "source": "pragma solidity ^0.5.1;\r\n\r\n//main driver contract\r\ncontract traffic{\r\n//model police\r\n\tstruct police{\r\n\t\tuint p_id;\r\n\t\tstring name;\r\n\t\tuint area;\r\n\t\tuint position;\r\n\t\taddress policeAddress;\r\n\t}\r\n// making ACP address payable to receive fines from users\r\n\t//address payable public ACP;\r\n\taddress public DCP;\r\n//Allows only ACP to access certain functions\r\n\t\r\n\r\n\tmodifier onlyACP{\r\n\t\trequire(policeOfficer[msg.sender]==true);\r\n\t\trequire(position[msg.sender]==4);\r\n\t\t_;\r\n\t}\r\n\r\n\t//Creating object of police struct with policecount as key value of mapping\r\n\tmapping(uint=>police) public policeDB;\r\n//makes account that first deploys contract as ACP \r\nmapping(uint=>bool) public Area_exist;\r\n\tconstructor() public{\r\n\t\tDCP=msg.sender;\r\n\t\tpoliceDB[0]=police(1,\"Major\",100,5,DCP);\r\n\t\tArea_exist[100]=true;\r\n\t}\r\n\tmodifier onlyDCP{\r\n\t    require(msg.sender==DCP);\r\n\t    _;\r\n\t}\r\n\t\r\n//--------------------------------------------------------------------------------------------\r\n//Function 1-> Adding officers :\r\n//--------------------------------------------------------------------------------------------\r\n\r\n\r\n//storing if account is a police officer \r\n\tmapping(address=>bool) public policeOfficer;\r\n//storing all accounts of police officers\r\n\tmapping(uint=>address) public policeAddress; //p_id to its address\r\n//To have a count of HCs in system\r\n\tuint public HCcount=0; \r\n//To have a count of PSIs in system\r\n\tuint public PSIcount=0;\r\n//To have a count of ASIs in system\r\n\tuint public ASIcount=0;\r\n//To have a count of ACPs in system\r\n    uint public ACPcount=0;\r\n//Total count of police officers  \r\n\tuint public policecount=0;\r\n\tevent policeadded(\r\n\t\tuint indexed p_id\r\n\t);\r\n\r\n//linking police id to police count to access individual police officers based on id \r\n\tmapping(uint=>uint) public policelist;\r\n//To see if police id has been used or not\r\n\tmapping(uint=>bool) public pol_exist;\r\n//to see if area has acp or not\r\n    mapping(uint=>bool) public Acp_exist;\r\n//to map address of ACP to certain area code \r\n    mapping(uint=>address payable)public Acp_area;\r\n    \r\n    function AddArea(uint _area,uint _p_id,string memory _name, address payable _officer) public onlyDCP{\r\n        Area_exist[_area]=true;\r\n        AddACP(_p_id,_name,_area,_officer);\r\n    }\r\n    mapping(address=>uint) public position;\r\n//Adding ACP \r\n\tfunction AddACP(uint _p_id,string memory _name, uint _area, address payable _officer) public onlyDCP{\r\n\t    require(pol_exist[_p_id]==false);\r\n\t    require(Acp_exist[_area]==false);\r\n\t    ACPcount++;\r\n\t    position[_officer]=4;\r\n\t    policeOfficer[_officer]=true;\r\n\t    pol_exist[_p_id]=true;\r\n\t    policecount++;\r\n\t    policeDB[policecount]=police(_p_id,_name,_area,4,_officer);\r\n\t    Acp_exist[_area]=true;\r\n\t    Acp_area[_area]=_officer;\r\n\t    policelist[_p_id]=policecount;\r\n\t    emit policeadded(_p_id);\r\n\t}  \r\n\t\r\n\tfunction ReplaceACP(uint _p_id1, address payable _officer1,uint _area, uint _p_id2, string memory _name2, address payable _officer2)public onlyDCP{\r\n\t    require(pol_exist[_p_id1]==true);\r\n\t    require(Acp_exist[_area]==true);\r\n\t    uint pcount=policelist[_p_id1];\r\n\t    policeDB[pcount].p_id=_p_id2;\r\n\t    policeDB[pcount].name=_name2;\r\n\t    policeDB[pcount].policeAddress=_officer2;\r\n\t    pol_exist[_p_id1]=false;\r\n\t    policeOfficer[_officer2]=true;\r\n\t    policeOfficer[_officer1]=false;\r\n\t    pol_exist[_p_id2]=true;\r\n\t    policelist[_p_id2]=pcount;\r\n\t    policelist[_p_id1]=0;\r\n\t    position[_officer1]=0;\r\n\t    position[_officer2]=4;\r\n\t}\r\n\t\r\n//linking an account to a particular designation of Police (1=HC,2=ASI,3=PSI,4=ACP)\r\n\tfunction AddPolice (uint _p_id,string memory _name, uint _area, uint _position, address payable _officer) public onlyACP{\r\n\t\trequire(pol_exist[_p_id]==false); //To make sure a pre existing police id isnt used \r\n\t\trequire(_position>0&&_position<4);//To make sure position is valid\r\n\t\tpol_exist[_p_id]=true;\r\n\t\tpoliceOfficer[_officer]=true;\r\n\t\tposition[_officer]=_position;\r\n\t\tif(_position==1)\r\n\t\t\tHCcount++;\r\n\t\telse if (_position==2)\r\n\t\t\tASIcount++;\r\n\t\telse \r\n\t\t\tPSIcount++;\r\n\r\n\t\tpolicecount++;\r\n\t\tpoliceDB[policecount]=police(_p_id,_name,_area,_position,_officer); //creating objects of police struct linked to policecount\r\n\t\tpolicelist[_p_id]=policecount; //linking police id to police count to access individual officers based on id\r\n\t\temit policeadded(_p_id);\t\t\r\n\t}\r\n\r\n//NEED TO ADD CHECK FOR EXISTING ACCOUNT FOR POLICE OFFICER\r\n\r\n//------------------------------------------------------------------------------------------------------\r\n//function 2-> Entering complaints and fines :\r\n//------------------------------------------------------------------------------------------------------\r\n\r\n\r\n//model offense\r\n\tstruct offense{\r\n\t\tuint offense_id;\r\n\t\tstring vehicle_no;\r\n\t\tuint area;\r\n\t\tstring offense_type; //4 types based on fine amount - A) fines between 1-500 B)between 500-1000 C)between 1000-5000 D)between 5000-10000 \r\n\t\t//offense type can be made into uint type as well for simplicity sake\r\n\t\tuint p_id;\r\n\t\tuint license;\r\n\t\tstring desc; //description of offense\r\n\t\tbool paid;\r\n\t}\r\n//model fine\r\n\tstruct fine{\r\n\t\tuint offense_id;\r\n\t\tuint amount;\r\n\t\tuint p_id;\r\n\t\tuint license;\r\n\t\tbool paid;\r\n\t}\r\n\t//linking offense id to a fine object \r\n\tmapping (uint=>fine) public fineDB;\r\n\tmapping (uint=>uint) public finelist;\r\n\t//linking license to fine to see if it exists or not, will be used to view unpaid fines\r\n\tmapping (uint=>bool) fineExist;\r\n\tuint public fines;\r\n\t//mapping (string=>uint)\tfinecost;\r\n\tfunction RecordFine (uint _offense_id, uint _amount, uint _p_id, uint _license) public onlyPolice{\r\n\t\tfines++;\r\n\t\tfineDB[fines]=fine({offense_id:_offense_id,amount:_amount,p_id:_p_id,license:_license,paid:false});\r\n\t\tfineExist[_license]=true;\r\n\t\tfinelist[_offense_id]=fines;\r\n\t}\r\n//model user \r\n\tstruct user{\r\n\t\tuint license;\r\n\t\tstring name;\r\n\t\tstring vehicle_no;\r\n\t\tuint offenseCount;\r\n\t\tuint license_status; // 1- active 2- suspended 3- revoked -- based on offensecount \r\n\t}\r\n\r\n\tevent useradded(\r\n\t\tuint indexed license\r\n\t);\r\n//mapping fine to offense\r\n\t//mapping(string=>uint) private OffenseCost;\r\n\t// a user can have multiple accounts for one license, this is used to link account address to license \r\n\tmapping (address=>uint) public accountlicense;\r\n\t//to check if account address has already been registered to an account\r\n\tmapping (address=>bool) public useraccount;\r\n\t//allows function like add offense to be accessed only by Police officers\r\n\tmodifier onlyPolice{\r\n\t\trequire(policeOfficer[msg.sender]==true);\r\n\t\t_;\r\n\t}\r\n\t//maintaining count of users for iterating in displaying database\r\n\tuint public usercount=0;\r\n\t//creating user objects based on user count for iteration\r\n\tmapping (uint=>user) public userDB;\r\n\t//mapping a license to a usercount to access individual user's data based on license number\r\n\tmapping (uint=>uint) userlist;\r\n\t//made true if user with entered license exists in system, false if not\r\n\tmapping (uint=>bool) userexist;\r\n\t//true if offense id exists for an offense, false if not. This allows offense id to not be repeated\r\n\tmapping (uint=>bool) offenseExist;\r\n\t\r\n\tfunction RegisterUser (uint _license, string memory _name, string memory _vehicle_no, uint _offenseCount, uint _license_status) public{\r\n\t\trequire (userexist[_license]==false);\r\n\t\tusercount++;\r\n\t\tuserDB[usercount]=user ({license:_license,name:_name,vehicle_no:_vehicle_no,offenseCount:_offenseCount,license_status:_license_status});\r\n\t\tuserlist[_license]=usercount;\r\n\t\tuserexist[_license]=true;\r\n\t\taccountlicense[msg.sender]=_license;\r\n\t\tuseraccount[msg.sender]=true;\r\n\t\temit useradded(_license);\r\n\t}\r\n//count of offenses entered in the system\r\n\tuint public offenses=0; \r\n\t//creating objects of struct offense based on number of offenses for iteration purposes\r\n\tmapping (uint=>offense) public offensedb;\r\n\t//linking offense id to offense count of system\r\n\tmapping(uint=>uint) offenseList;\r\n\tevent offenseadded(\r\n\t\tuint indexed offense_id\r\n\t);\r\n\t\r\n//adding offense\r\n\tfunction AddOffense (uint _offense_id,string memory _vehicle_no,uint _area,string memory _offense_type, uint _p_id, uint _license, string memory _desc) public onlyPolice{\r\n\t\tuint pc=policelist[_p_id];\r\n \r\n\t\trequire (policeDB[pc].area==_area);  //checking police jurisdiction area wise\r\n\t\trequire (offenseExist[_offense_id]==false); // checking if offense id exists\r\n\t\t//checking for valid offense type\r\n\t\trequire (keccak256(bytes(_offense_type)) == keccak256(bytes(\"A\"))||keccak256(bytes(_offense_type)) == keccak256(bytes(\"B\"))||keccak256(bytes(_offense_type)) == keccak256(bytes(\"C\")));\r\n\t\tif (userexist[_license]==false){ //check if user account exists in system based on license\r\n\t\t\t//since it doesnt we need to add user object with offense count of 1\r\n\t\t\tuserexist[_license]=true;\r\n\t\t\tusercount++;\r\n\t\t\tuserDB[usercount]=user({license:_license, name:\"NA\", vehicle_no:_vehicle_no, offenseCount:1, license_status:1});\r\n\t\t\tuserlist[_license]=usercount;\r\n\t\t\t//userDB[usercount].offenseCount++;\r\n\t\t}\r\n\t\telse{// if user already exists\r\n\t\t\tuint uc=userlist[_license];\r\n\t\t\tuserDB[uc].offenseCount++;\r\n\t\t\tif(userDB[uc].offenseCount==2||userDB[uc].offenseCount==3)\r\n\t\t\t\tRevokeLicense(_license);\r\n\t\t}\r\n\t\toffenses++;\r\n\t\toffensedb[offenses]=offense({offense_id:_offense_id,vehicle_no:_vehicle_no,area:_area,\r\n\t\t\t\t\t\t\t\t\toffense_type:_offense_type,p_id:_p_id,license:_license,desc:_desc,paid:false});\r\n\t\toffenseList[_offense_id]=offenses;\r\n\t\tuint _amount;\r\n\t\t//assigning ether amounts for fine payment, arbitrary numbers used for representation\r\n\t\t//A=>1 eth B=>2eth C=> 3 eth D=> 4 eth\r\n\t\tif(keccak256(bytes(_offense_type)) == keccak256(bytes(\"A\")))\r\n\t\t\t_amount=1;  \r\n\t\telse if(keccak256(bytes(_offense_type)) == keccak256(bytes(\"B\")))\r\n\t\t\t_amount=2;\r\n\t\telse \r\n\t\t\t_amount=3;\r\n\t\t\r\n\t\tRecordFine(_offense_id,_amount,_p_id,_license); // recording fine after adding offense\r\n\t\toffenseExist[_offense_id]=true;\r\n\t\temit offenseadded(_offense_id);\r\n\t}\r\n\t//allowing only PSI to access certain functions like revoking license\r\n\t\r\n\tfunction registeraccount (uint _license,address _newaccount) public {\r\n\t    require(userexist[_license]==true);\r\n\t    require(useraccount[_newaccount]!=true);\r\n\t    accountlicense[_newaccount]=_license;\r\n\t    useraccount[_newaccount]=true;\r\n\t}\r\n\r\n\tfunction payfine(uint _license, uint _offense_id,uint _area) public payable{\r\n\t    require(fineExist[_license]==true);\r\n\t\trequire(userexist[_license]==true);\r\n\t\tif (useraccount[msg.sender]!=true){\r\n\t\t\tregisteraccount(_license,msg.sender);\r\n\t\t}\r\n\t\trequire(accountlicense[msg.sender]==_license);\r\n\t\taddress payable Acp=Acp_area[_area];\r\n\t\tuint amount=fineDB[_offense_id].amount;\r\n\t\tamount=amount*1000000000000000000;\r\n\t\tdeposit(amount);\r\n\t\tAcp.transfer(address(this).balance);\r\n\t\tfineDB[_offense_id].paid=true;\r\n\t\toffensedb[_offense_id].paid=true;\r\n\t}\r\n\t\r\n\t function deposit(uint256 amount) payable public {\r\n        require(msg.value == amount);\r\n    }\r\n\r\n    function RevokeLicense(uint _license) public {\r\n\t\tuint uc = userlist[_license];\r\n\t\trequire(userDB[uc].offenseCount>1);\r\n\t\tif(userDB[uc].offenseCount==2)\t\r\n\t\t\tuserDB[uc].license_status=2;\r\n\t\telse \r\n\t\t\tuserDB[uc].license_status=3;\t\t\r\n\t}\r\n}",
  "sourcePath": "C:\\traffic\\contracts\\traffic.sol",
  "compiler": {
    "name": "solc",
    "version": "0.5.16+commit.9c3226ce.Emscripten.clang"
  },
  "schemaVersion": "3.1.0",
  "updatedAt": "2020-07-11T09:56:17.443Z",
  "networkType": "ethereum",
  "devdoc": {
    "methods": {}
  },
  "userdoc": {
    "methods": {}
  }
}